:020000040800F2
:1000000000000220691D00084D2600085326000844
:1000100071260008772600087D26000800000000F1
:100020000000000000000000000000004D1F00085C
:10003000C91D000800000000651F0008C922000853
:10004000C91D0008C91D0008C91D0008C91D0008F8
:10005000C91D0008C91D0008797200089D720008BA
:10006000C1720008E572000809730008C91D000884
:1000700091430008C91D0008B9420008C91D0008C5
:100080004943000871420008C91D0008C91D000845
:10009000C91D0008C91D0008C91D00082D730008EE
:1000A000C91D0008C91D000879240008C91D0008E1
:1000B000C91D0008C91D0008C91D0008C91D000888
:1000C000C91D0008C91D0008C91D0008C91D000878
:1000D000C91D000899410008B1410008C941000844
:1000E0008D730008C91D0008C91D0008C91D00083E
:1000F000C91D0008C91D0008C91D0008C91D000848
:10010000C91D0008C91D00086D200008C91D000890
:10011000E1410008F9410008C91D0008C91D000897
:10012000C91D0008C91D0008C91D0008C91D000817
:10013000C91D0008C91D0008C91D0008C91D000807
:10014000C91D0008C91D0008C91D0008C91D0008F7
:1001500001430008C91D0008294200081142000897
:10016000C91D0008C91D0008C91D0008C91D0008D7
:10017000C91D0008C91D0008C91D0008C91D0008C7
:0C018000C91D0008C91D0008000000088F
:1001900081F0004102E000BF83F0004330B54FEA38
:1001A00041044FEA430594EA050F08BF90EA020FA5
:1001B0001FBF54EA000C55EA020C7FEA645C7FEA38
:1001C000655C00F0E2804FEA5454D4EB5555B8BF5B
:1001D0006D420CDD2C4480EA020281EA030382EACC
:1001E000000083EA010180EA020281EA0303362D5E
:1001F00088BF30BD11F0004F4FEA01314FF4801C31
:100200004CEA113102D0404261EB410113F0004F42
:100210004FEA03334CEA133302D0524263EB4303F9
:1002200094EA050F00F0A780A4F10104D5F1200E97
:100230000DDB02FA0EFC22FA05F2801841F10001F2
:1002400003FA0EF2801843FA05F359410EE0A5F1C6
:1002500020050EF1200E012A03FA0EFC28BF4CF0F7
:10026000020C43FA05F3C01851EBE37101F00045AD
:1002700007D54FF0000EDCF1000C7EEB00006EEBBA
:100280000101B1F5801F1BD3B1F5001F0CD3490844
:100290005FEA30004FEA3C0C04F101044FEA44529B
:1002A00012F5800F80F09A80BCF1004F08BF5FEA22
:1002B000500C50F1000041EB045141EA050130BD02
:1002C0005FEA4C0C404141EB010111F4801FA4F1A5
:1002D0000104E9D191F0000F04BF01460020B1FAFA
:1002E00081F308BF2033A3F10B03B3F120020CDA32
:1002F0000C3208DD02F1140CC2F10C0201FA0CF010
:1003000021FA02F10CE002F11402D8BFC2F1200C74
:1003100001FA02F120FA0CFCDCBF41EA0C0190402A
:10032000E41AA2BF01EB0451294330BD6FEA040473
:100330001F3C1CDA0C340EDC04F11404C4F120025E
:1003400020FA04F001FA02F340EA030021FA04F370
:1003500045EA030130BDC4F10C04C4F1200220FAC7
:1003600002F001FA04F340EA0300294630BD21FA05
:1003700004F0294630BD94F0000F83F4801306BFCB
:1003800081F480110134013D4EE77FEA645C18BFBF
:100390007FEA655C29D094EA050F08BF90EA020F56
:1003A00005D054EA000C04BF1946104630BD91EA4E
:1003B000030F1EBF0021002030BD5FEA545C05D151
:1003C0004000494128BF41F0004130BD14F5800490
:1003D0003CBF01F5801130BD01F0004545F0FE4104
:1003E00041F470014FF0000030BD7FEA645C1ABF39
:1003F000194610467FEA655C1CBF0B46024650EA70
:10040000013406BF52EA033591EA030F41F400219B
:1004100030BD00BF90F0000F04BF0021704730B521
:100420004FF4806404F132044FF000054FF00001F6
:1004300050E700BF90F0000F04BF0021704730B5B7
:100440004FF4806404F1320410F0004548BF40428C
:100450004FF000013EE700BF42004FEAE2014FEAE1
:1004600031014FEA02701FBF12F07F4393F07F4FBC
:1004700081F06051704732F07F4208BF704793F0BF
:100480007F4F04BF41F40021704730B54FF46074D2
:1004900001F0004521F000411CE700BF50EA0102D5
:1004A00008BF704730B54FF000050AE050EA01027E
:1004B00008BF704730B511F0004502D5404261EBEE
:1004C00041014FF4806404F132045FEA915C3FF42F
:1004D000D8AE4FF003025FEADC0C18BF03325FEACC
:1004E000DC0C18BF033202EBDC02C2F1200300FA7D
:1004F00003FC20FA02F001FA03FE40EA0E0021FAA2
:1005000002F11444BDE600BF70B54FF0FF0C4CF48F
:10051000E06C1CEA11541DBF1CEA135594EA0C0F41
:1005200095EA0C0F00F0DEF82C4481EA030621EA7C
:100530004C5123EA4C5350EA013518BF52EA0335B7
:1005400041F4801143F4801338D0A0FB02CE4FF069
:100550000005E1FB02E506F00042E0FB03E54FF099
:100560000006E1FB03569CF0000F18BF4EF0010E91
:10057000A4F1FF04B6F5007F64F5407404D25FEA8D
:100580004E0E6D4146EB060642EAC62141EA555140
:100590004FEAC52040EA5E504FEACE2EB4F1FD0C82
:1005A00088BFBCF5E06F1ED8BEF1004F08BF5FEA00
:1005B000500E50F1000041EB045170BD06F00046B2
:1005C00046EA010140EA020081EA0301B4EB5C045F
:1005D000C2BFD4EB0C0541EA045170BD41F4801157
:1005E0004FF0000E013C00F3AB8014F1360FDEBF7C
:1005F000002001F0004170BDC4F10004203C35DA58
:100600000C341BDC04F11404C4F1200500FA05F3DA
:1006100020FA04F001FA05F240EA020001F000427B
:1006200021F0004110EBD37021FA04F642EB0601F1
:100630005EEA430E08BF20EAD37070BDC4F10C041B
:10064000C4F1200500FA04F320FA05F001FA04F2DF
:1006500040EA020001F0004110EBD37041F10001CB
:100660005EEA430E08BF20EAD37070BDC4F12005D6
:1006700000FA05F24EEA020E20FA04F301FA05F23E
:1006800043EA020321FA04F001F0004121FA04F2E6
:1006900020EA020000EBD3705EEA430E08BF20EAB6
:1006A000D37070BD94F0000F0FD101F000464000F0
:1006B00041EB010111F4801F08BF013CF7D041EA72
:1006C000060195F0000F18BF704703F00046520076
:1006D00043EB030313F4801F08BF013DF7D043EA47
:1006E0000603704794EA0C0F0CEA135518BF95EAFD
:1006F0000C0F0CD050EA410618BF52EA4306D1D184
:1007000081EA030101F000414FF0000070BD50EAA2
:10071000410606BF1046194652EA430619D094EA2C
:100720000C0F02D150EA013613D195EA0C0F05D116
:1007300052EA03361CBF104619460AD181EA03016A
:1007400001F0004141F0FE4141F470014FF0000022
:1007500070BD41F0FE4141F4780170BD70B54FF0BD
:10076000FF0C4CF4E06C1CEA11541DBF1CEA13553D
:1007700094EA0C0F95EA0C0F00F0A7F8A4EB05041F
:1007800081EA030E52EA03354FEA013100F0888016
:100790004FEA03334FF0805545EA131343EA1263DF
:1007A0004FEA022245EA111545EA10654FEA002694
:1007B0000EF000419D4208BF964244F1FD0404F54D
:1007C000407402D25B084FEA3202B61A65EB0305A9
:1007D0005B084FEA32024FF480104FF4002CB6EB66
:1007E000020E75EB030E22BFB61A754640EA0C00E6
:1007F0005B084FEA3202B6EB020E75EB030E22BF26
:10080000B61A754640EA5C005B084FEA3202B6EB66
:10081000020E75EB030E22BFB61A754640EA9C0025
:100820005B084FEA3202B6EB020E75EB030E22BFF5
:10083000B61A754640EADC0055EA060E18D04FEAB3
:10084000051545EA16754FEA06164FEAC30343EA53
:1008500052734FEAC2025FEA1C1CC0D111F4801F20
:100860000BD141EA00014FF000004FF0004CB6E719
:1008700011F4801F04BF01430020B4F1FD0C88BFB8
:10088000BCF5E06F3FF6AFAEB5EB030C04BFB6EBC3
:10089000020C5FEA500C50F1000041EB045170BDB6
:1008A0000EF0004E4EEA113114EB5C04C2BFD4EBE3
:1008B0000C0541EA045170BD41F480114FF0000E67
:1008C000013C90E645EA060E8DE60CEA135594EAE3
:1008D0000C0F08BF95EA0C0F3FF43BAF94EA0C0FE6
:1008E0000AD150EA01347FF434AF95EA0C0F7FF45B
:1008F00025AF104619462CE795EA0C0F06D152EAAF
:1009000003353FF4FDAE1046194622E750EA410692
:1009100018BF52EA43067FF4C5AE50EA41047FF4A3
:100920000DAF52EA43057FF4EBAE12E74FF0FF3C08
:1009300006E000BF4FF0010C02E000BF4FF0010CD9
:100940004DF804CD4FEA410C7FEA6C5C4FEA430C52
:1009500018BF7FEA6C5C1BD001B050EA410C0CBFA1
:1009600052EA430C91EA030F02BF90EA020F002003
:10097000704710F1000F91EA030F58BF994208BF6A
:1009800090422CBFD8176FEAE37040F00100704727
:100990004FEA410C7FEA6C5C02D150EA013C07D17E
:1009A0004FEA430C7FEA6C5CD6D152EA033CD3D0C9
:1009B0005DF8040B704700BF8446104662468C46C3
:1009C0001946634600E000BF01B5FFF7B7FF0028F6
:1009D00048BF10F1000F01BD4DF808EDFFF7F4FF1F
:1009E0000CBF012000205DF808FB00BF4DF808EDAA
:1009F000FFF7EAFF34BF012000205DF808FB00BFCD
:100A00004DF808EDFFF7E0FF94BF012000205DF8EE
:100A100008FB00BF4DF808EDFFF7CEFF94BF0120A3
:100A200000205DF808FB00BF4DF808EDFFF7C4FF9C
:100A300034BF012000205DF808FB00BF4A0011D23E
:100A400012F5001211D20DD56FF47873B3EB625228
:100A50000ED44FEAC12343F0004343EA505323FA34
:100A600002F070474FF00000704750EA013002D1A9
:100A70004FF0FF3070474FF0000070477BB972B9FC
:100A80000029BEBF00204FF0004106E008BF00284B
:100A90001CBF6FF000414FF0FF3000F0F5B9ADF131
:100AA000080C6DE904CE002909DB002B1ADB00F0ED
:100AB00083F8DDF804E0DDE9022304B0704740422A
:100AC00061EB4101002B1BDB00F076F8DDF804E060
:100AD000DDE9022304B0404261EB4101524263EB85
:100AE00043037047524263EB430300F065F8DDF8BF
:100AF00004E0DDE9022304B0404261EB41017047AC
:100B0000524263EB430300F057F8DDF804E0DDE9FF
:100B1000022304B0524263EB4303704753B94AB90E
:100B2000002908BF00281CBF4FF0FF314FF0FF30F5
:100B300000F0AAB9ADF1080C6DE904CE00F03CF864
:100B4000DDF804E0DDE9022304B0704738B5002287
:100B5000002304460D46FFF749FF28B920462946E1
:100B6000BDE8384000F00AB8204605F1004100F029
:100B700005F8404261EB410138BD00BFD0B500220D
:100B80000B4B06460F46FFF7BFFCFFF757FF044627
:100B9000FFF740FC0022074BFFF7B6FC02460B466E
:100BA00030463946FFF7F8FAFFF748FF2146D0BD37
:100BB0000000F03D0000F0412DE9F047089E04469A
:100BC0008846002B40F085808A42154648D9B2FA03
:100BD00082F24AB1C2F1200701FA02F320FA07F7C4
:100BE000954047EA030894404FEA154E230CB8FBA2
:100BF000FEF71FFA85FC0EFB178843EA084307FB44
:100C00000CF1994209D9EB1807F1FF3080F0E3802D
:100C1000994240F2E080023F2B445B1AA4B2B3FB3E
:100C2000FEF00EFB103344EA034400FB0CFCA44529
:100C300009D92C1900F1FF3380F0CB80A44540F294
:100C4000C88002382C4440EA0740A4EB0C0400277B
:100C50001EB1D4400023C6E900433946BDE8F08701
:100C6000002A53D0B2FA82F2002A40F0B680491B23
:100C70004FEA154E1FFA85F80127B1FBFEFC230C45
:100C80000EFB1C1143EA014308FB0CF1994207D902
:100C9000EB180CF1FF3002D2994200F2EC8084464E
:100CA000591AA3B2B1FBFEF00EFB101443EA044440
:100CB00008FB00F8A04507D92C1900F1FF3302D238
:100CC000A04500F2DC801846A4EB080440EA0C4082
:100CD000BEE78B4208D9002E78D00027C6E9000174
:100CE00038463946BDE8F087B3FA83F77FB98B42BF
:100CF00002D3824200F2BD80841A61EB030301201B
:100D00009846002EA9D0C6E90048A6E7FFDEC7F145
:100D10002005BB4022FA05FC4CEA030C01FA07F45B
:100D200020FA05F821FA05F34FEA1C4E48EA0404BC
:100D3000B3FBFEF9210C0EFB19331FFA8CF841EAC4
:100D4000034309FB08FA9A4502FA07F200FA07F191
:100D50000BD91CEB030309F1FF3080F088809A4522
:100D600040F28580A9F102096344A3EB0A03A4B20F
:100D7000B3FBFEF00EFB103344EA034400FB08F81B
:100D8000A04508D91CEB040400F1FF336BD2A04549
:100D900069D90238644440EA0940A4EB0804A0FB86
:100DA00002894C45C6464B4654D351D0002E69D0DB
:100DB000B1EB0E0264EB030404FA05F522FA07F323
:100DC000FC401D43C6E90054002746E7374630463D
:100DD00043E7184637E707461FE7C2F1200320FA2A
:100DE00003F7954001FA02F021FA03F34FEA154E9A
:100DF0003843010CB3FBFEF71FFA85F80EFB1733DF
:100E000041EA034107FB08F38B4204FA02F407D9D5
:100E1000691807F1FF3C28D28B4226D9023F2944AA
:100E2000CB1A81B2B3FBFEF00EFB103341EA034153
:100E300000FB08F38B4207D9691800F1FF3C10D280
:100E40008B420ED902382944C91A40EA074714E7F1
:100E50004145ABD2B8EB020E69EB0C0201381346E8
:100E6000A4E76046F0E7184695E76746D8E781466D
:100E70007BE7384645E7ACF1020C2B4410E702381B
:100E80002C4421E73746E8E6704700BF80B582B0C2
:100E900000AF7860074A7B681A60074800F07EF967
:100EA0007B680433184600F0F9F97B681846083768
:100EB000BD4680BD747A0008F873000880B582B022
:100EC00000AF78607868FFF7E1FF2421786800F0D0
:100ED0001BFA7B6818460837BD4680BD80B483B0D6
:100EE00000AF786000BF0C37BD465DF8047B7047EB
:100EF000F0B583B000AF78600B4800F007F900F060
:100F000031FA0A46014606A4D4E90034CD1842EB72
:100F1000040600222846314602F060F8ECE700BFE4
:100F200000CA9A3B000000000874000880B582B037
:100F300000AF786078684FF4FA636422054901F0E5
:100F40000FFF054A7B681A607B6818460837BD4664
:100F500080BD00BF147400085C7A000880B584B0BE
:100F600000AFF860B9607A60F8687B685022B968B1
:100F700000F074FA034AFB681A60FB6818461037E1
:100F8000BD4680BD4C7A000880B582B000AF786065
:100F9000054A7B681A607B68184601F04FFF7B6842
:100FA00018460837BD4680BD5C7A000880B582B01F
:100FB00000AF78607868FFF7E7FF5021786800F0AD
:100FC000A3F97B6818460837BD4680BD80B582B05E
:100FD00000AF786039607B68012B17D13B684FF612
:100FE000FF72934212D10B4A4FF0FF310A48FFF7CC
:100FF000B5FF0A4A0A49084806F0F8F90948FFF718
:1010000095FF064A0849074806F0F0F900BF08377F
:10101000BD4680BD2474000858000020FC0100205B
:101020002D10000880000020890F000880B582B0D4
:1010300000AF7860074A7B681A60074800F0AEF896
:101040007B681846FFF722FF7B6818460837BD46C5
:1010500080BD00BF4C7A00083074000880B582B0B3
:1010600000AF78607868FFF7E1FF2421786800F02E
:101070004BF97B6818460837BD4680BD80B500AF88
:101080004FF6FF710120FFF7A1FF80BD80B483B050
:1010900000AF7860044A7B681A607B6818460C379A
:1010A000BD465DF8047B7047847A000880B582B045
:1010B00000AF78607868FFF7E9FF0821786800F0F2
:1010C00023F97B6818460837BD4680BD80B582B0DD
:1010D00000AF78600B46FB7097F90330184601F0BB
:1010E000D3FA00BF0837BD4680BD000080B483B08E
:1010F00000AF7860044A7B681A607B6818460C373A
:10110000BD465DF8047B7047847A00080FB480B553
:1011100082B000AF1D4B1B68002B30D03B461846F9
:10112000FFF7E4FF07F114037B60194B1B68002BEA
:1011300005D0174B1B681946164800F0C1FD01F099
:10114000FFFC034683F00103DBB2002B05D03B46D6
:101150003969184600F036FB0AE00F4801F03BFD04
:101160003B463969184600F02DFB0B4801F092FD13
:1011700001F0CDFA3B461846FFF788FF00E000BFBC
:101180000837BD46BDE8804004B070470400002029
:10119000D000002048740008D400002080B582B040
:1011A00000AF7860074A7B68136079680648FFF7EC
:1011B000ADFF064B1B680133044A136000BF0837BC
:1011C000BD4680BD000000205C740008D0000020F7
:1011D00080B582B000AF786039607B68012B07D1A1
:1011E0003B684FF6FF72934202D1034801F0DCFCEA
:1011F00000BF0837BD4680BDD400002080B500AFD9
:101200004FF6FF710120FFF7E3FF80BD80B584B08A
:1012100000AFF860B9607A603B60FB683A68DA60FA
:10122000FB687A685A60084B1B685A1C06490A60BA
:10123000FA689360B968F86800F008F8FB68184627
:101240001037BD4680BD00BFE400002080B582B0ED
:1012500000AF786039603B681A687B681A603B6849
:101260007A681A600A4B1B68002B14BF0123002305
:10127000DBB2002B08D00748FFF790FF7B685B6864
:1012800019460548FFF742FF00BF0837BD4680BD3D
:101290000402002088740008BC74000880B582B085
:1012A00000AF78600348FFF779FF7B68184608377E
:1012B000BD4680BDE074000880B485B000AF7860A2
:1012C0000023FB607B68002B01D100230CE07B68CE
:1012D00093F90030002B06D0FB680133FB607B687C
:1012E00001337B60F3E7FB6818461437BD465DF8B1
:1012F000047B704780B483B000AF786000BF0C37C8
:10130000BD465DF8047B704780B582B000AF786061
:1013100039607868FFF7EEFF00BF0837BD4680BD33
:1013200090B482B000AF78607A684FF000034FF05D
:101330000004C2E900347A684FF000034FF0000463
:10134000C2E902347A684FF000034FF00004C2E9AA
:1013500004347B6811229A617B6818460837BD46C1
:1013600090BC704798B500AF01F0FEF803460C46FC
:101370001846214698BD2DE9B04F84B000AFC7E9AB
:101380000201C7E90023D7E90223D7E90C01904203
:1013900071EB030302DAD7E902892DE0D7E90023D4
:1013A000134304D14FF0FF386FF0004924E0D7E930
:1013B0000C01D7E90223B0EB020A61EB030BD7E97A
:1013C000002350465946FFF759FB02460B46541C72
:1013D00043F100053B6805FB03F27B6804FB03F364
:1013E0001A443B68A3FB043422441446D7E9021292
:1013F00013EB010844EB020943464C4618462146CC
:101400001037BD46BDE8B08F80B582B000AF7860C0
:1014100039607B68012B07D13B684FF6FF7293421E
:1014200002D10348FFF77CFF00BF0837BD4680BDEF
:10143000E800002080B500AF4FF6FF710120FFF7F4
:10144000E3FF80BD80B483B000AF78607B681B6829
:1014500018460C37BD465DF8047B704780B586B0F2
:1014600000AFF860B9607A603B60FB68181D00232C
:101470003A682D49FFF7CAFE2C4AFB681A60FB68E0
:1014800000225A61FB68BA68DA61FB687A681A62FE
:10149000FB6800229A61FB68DB69B3F1FF3F11D161
:1014A000386802F014F903461A46FB68DA61FB68F3
:1014B000DB69B3F57A7F05DAFB68DB6903F57A72DD
:1014C000FB68DA61184B1B68002B03D0164B1B68B6
:1014D000043B00E000237B617B69002B1FD07B690C
:1014E000DB69BA689A420DD17A69FB689A4209D0E1
:1014F0000F48FFF753FE7B699B683A68B9680D484F
:10150000FFF704FE7B6904331846FFF79BFF034691
:10151000002B01D0043B00E000237B61DCE7FB688B
:1015200018461837BD4680BDD8020020747A0008DE
:10153000047500081875000880B582B000AF7860A7
:10154000074A7B681A600748FFF728FE7B68184641
:10155000FFF79CFC7B6818460837BD4680BD00BF7E
:10156000B87A00089075000880B582B000AF786046
:101570007868FFF7E1FF24217868FFF7C5FE7B68F4
:1015800018460837BD4680BD80B584B000AFF8600E
:10159000B9607A60F8687B680C22B968FFF75EFF73
:1015A000034AFB681A60FB6818461037BD4680BDC9
:1015B000B87A000880B584B000AFF860B9607A608E
:1015C000F8687B6840F22E52B968FFF747FF044A7B
:1015D000FB681A60FB6818461037BD4680BD00BF27
:1015E000A87A000880B584B000AFF860B9607A606E
:1015F000F8687B680422B968FFF730FF034AFB688C
:101600001A60FB6818461037BD4680BD987A0008FE
:1016100080B582B000AF786039607B68012B4FD114
:101620003B684FF6FF7293424AD10A222649274867
:1016300001F068FF264A2749244805F0D7FE264ACC
:1016400000212648FFF7A0FF214A2549234805F03D
:10165000CDFE244A4FF0FF312348FFF7ABFF1C4A71
:101660002249214805F0C2FE214A4FF0FF312148AE
:10167000FFF7B8FF164A20491E4805F0B7FE1F4A7B
:101680004FF0FF311E48FFF7ADFF114A1A491C48C1
:1016900005F0ACFE1B4A4FF0FF311B48FFF7A2FFDD
:1016A0000B4A1549184805F0A1FE184A4FF0FF31C2
:1016B0001748FFF769FF064A0949154805F096FEE5
:1016C00000BF0837BD4680BDA07500080801002096
:1016D000FC01002045350008B475000824010020F5
:1016E00039150008C4750008480100206517000876
:1016F000D07500086C01002015170008E07500087F
:1017000090010020F0750008B40100200476000864
:10171000D801002080B582B000AF7860074A7B68AE
:101720001A600748FFF73AFD7B681846FFF7AEFBE3
:101730007B6818460837BD4680BD00BF987A000810
:101740009075000880B582B000AF78607868FFF7C8
:10175000E1FF24217868FFF7D7FD7B68184608373A
:10176000BD4680BD80B582B000AF7860074A7B6817
:101770001A600748FFF712FD7B681846FFF786FBE3
:101780007B6818460837BD4680BD00BFA87A0008B0
:101790009075000880B582B000AF78607868FFF778
:1017A000E1FF24217868FFF7AFFD7B681846083712
:1017B000BD4680BD80B500AF4FF6FF710120FFF739
:1017C00027FF80BD90B595B000AF786039603B6869
:1017D0005A1C3A6093F9003087F84F3097F84F3031
:1017E000002B14BF01230023DBB2002B00F0618229
:1017F000002387F84E30002387F84D30002387F808
:101800004C30002387F84B3097F84F30252B09D008
:101810007B681B6808331B6897F94F20114678686E
:10182000984745E23B685A1C3A6093F9003087F8C4
:101830004F30002387F84330202387F842300323BA
:1018400087F8413097F84F30302B0AD197F84F3056
:1018500087F842303B685A1C3A6093F9003087F8A9
:101860004F3097F84F302F2B0FD997F84F30392B37
:101870000BD897F84F30303B87F843303B685A1C01
:101880003A6093F9003087F84F3097F84F302E2B9D
:1018900012D13B685A1C3A6093F9003087F84F30F8
:1018A00097F84F30303B87F841303B685A1C3A601C
:1018B00093F9003087F84F3097F84F306C2B09D1EF
:1018C000012387F84D303B685A1C3A6093F9003089
:1018D00087F84F3097F84F306C2B09D1012387F8E8
:1018E0004C303B685A1C3A6093F9003087F84F300F
:1018F00097F84F30623B162B38D801A252F823F0EC
:10190000F51900085D190008DF1900086D190008B5
:10191000D91900086D1900086D1900086D19000823
:101920006D1900086D1900086D1900086D1900087F
:101930006D190008C31900086D1900086D19000819
:101940006D190008811900086D190008E5190008D3
:101950006D1900086D190008ED1900087B681A1D43
:101960001368191D11601B6887F84F307B681B686E
:1019700008331B6897F94F2011467868984797E11C
:101980007B681A1D1368191D11601B687B647B6CD2
:101990005A1C7A641B7887F84F3097F84F30002B29
:1019A00014BF01230023DBB2002B00F080817B6891
:1019B0001B6808331B6897F94F20114678689847D1
:1019C000E5E70823A7F848307B681B6808331B68E5
:1019D00030217868984711E0012387F84B300123C4
:1019E00087F84E300A23A7F8483007E01023A7F8FD
:1019F000483003E00223A7F8483000BF4FF000034F
:101A00004FF00004C7E90C344FF000034FF000041E
:101A1000C7E90A3497F84B30002B15D07B681A1DA4
:101A20001368073323F0070303F108011160D3E9BA
:101A30000034C7E90A34D7E90A01FFF787F80346FB
:101A40000C46C7E90C342AE097F84C30002B0DD037
:101A50007B681A1D1368073323F0070303F108019D
:101A60001160D3E90034C7E90C3418E097F84D3021
:101A7000002B0AD07B681A1D1368191D11601B68A2
:101A80004FEAE374C7E90C3409E07B681A1D136858
:101A9000191D11601B684FEAE374C7E90C3497F80D
:101AA0004E30002B2DD0D7E90C34002B74F10003FD
:101AB0000ADB4FF000024FF00003D7E90A01FEF7FE
:101AC00095FF0346002B1CD0D7E90C345B4264EB36
:101AD0004404C7E90C34BB6ABB62FB6A83F0004371
:101AE000FB627B681B6808331B682D217868984768
:101AF00097F84330002B04D097F84330013B87F828
:101B0000433097F84C30002B04D0D7E90C34C7E9A8
:101B10000E340EE097F84D30002B05D03B6B4FF0A4
:101B20000004C7E90E3404E03B6B4FF00004C7E942
:101B30000E3407F10C031A337B647B6C013B7B642E
:101B40007B6C00221A70B7F848304FF00004D7E9D8
:101B50000E011A462346FEF7E1FF1C461346DBB290
:101B60003033DBB287F8273097F92730392B05DD82
:101B700097F827300733DBB287F827307B6C013BBF
:101B80007B6497F827207B6C1A70B7F848304FF0C9
:101B900000041A462346D7E90E01FEF7BFFF0346AD
:101BA0000C46C7E90E3497F84330002B04D097F861
:101BB0004330013B87F84330D7E90E34234300D04C
:101BC000C1E797F843305A1E87F84320002B14BF13
:101BD00001230023DBB2002B07D07B6C013B7B642D
:101BE0007B6C97F842201A70EBE77B6C5A1C7A6486
:101BF0001B7887F84F3097F84F30002B14BF012324
:101C00000023DBB2002B09D07B681B6808331B68FC
:101C100097F94F20114678689847E6E797F84B30D8
:101C2000002B3FF4D4AD7B681B6808331B682E2162
:101C30007868984797F841305A1E87F84120002B62
:101C400014BF01230023DBB2002B3FF4C0ADD7E962
:101C50000C01FEF72BFC03460C461A462346D7E937
:101C60000A01FEF799FA03460C46C7E90A344FF019
:101C70000002124BD7E90A01FEF746FC03460C4668
:101C8000C7E90A34D7E90A01FEF760FF03460C46AC
:101C9000C7E90C347B681B6808331B6897F8302051
:101CA0003032D2B252B2114678689847C2E700BFCC
:101CB0008DE500BF5437BD4690BD00BF00002440F5
:101CC0000FB480B582B000AF0D4B1B68002B10D055
:101CD0003B461846FFF70AFA07F114037B603B46C0
:101CE00039691846FFF76EFD3B461846FFF7CEF9F7
:101CF00000E000BF0837BD46BDE8804004B0704733
:101D00000400002080B582B000AF0D4B7B6008E07E
:101D10007B681B6898473B6801333B607B680433F2
:101D20007B607B68074A9342F2D13B6801333B609A
:101D30003B68013B3B6000BF0837BD4680BD00BF2C
:101D4000007C0008207C000880B485B000AFF860FB
:101D5000B9607A60002318461437BD465DF8047BED
:101D6000704780B400AFFEE7002103E00F4B5B58E3
:101D7000435004310E480F4B42189A42F6D30E4A94
:101D800002E0002342F8043B0C4B9A42F9D30C4A80
:101D900002E0002342F8043B0A4B9A42F9D300F0D8
:101DA000BDFCFFF7AFFF01F0EBFE7047207C0008A1
:101DB0000000002058000020580000209CB30020A4
:101DC000000000100000001000F05BFCFCE70000C9
:101DD00080B483B000AF03463960FB7197F90730D8
:101DE000002B0DDA3B68DAB20E4997F90730DBB207
:101DF00003F00F03043B1201D2B20B441A760BE03E
:101E00003B68DBB2084A97F9071008461B01D9B2B4
:101E100013180A4683F8002300BF0C37BD465DF84F
:101E2000047B704700ED00E000E100E080B584B085
:101E300000AF184B00221A60FF216FF00100FFF77E
:101E4000C7FFFF214FF0FF30FFF7C2FF00F0A4FCF7
:101E500000F01CF90246104B1A60104B1B68104A28
:101E600013604FF4E1310F4802F0B6FA00F022FBA4
:101E70003B46184604F010F83B680B4AA2FB0323CC
:101E80009B0C19460948FFF741F900BF1037BD46C2
:101E900080BD00BF0402002024020020107AFF1F32
:101EA0002C0000200802002083DE1B43107600086F
:101EB00080B400AF72B600BFBD465DF8047B7047CA
:101EC00080B400AF62B600BFBD465DF8047B7047CA
:101ED00080B483B000AF786039607B68043B7B607E
:101EE0007B684FF080721A607B68043B7B60104A0D
:101EF0007B681A607B68043B7B607B6800221A6009
:101F00007B68143B7B603A687B681A607B68043BA3
:101F10007B607B686FF002021A607B68203B7B600D
:101F20007B6818460C37BD465DF8047B704700BFE0
:101F30002131000804480068006880F3088862B610
:101F400000DF00BF00BF000008ED00E004490868A2
:101F5000B0E8F04F80F30988704700BF00BF000071
:101F60000002002071B6EFF309801EF0100F08BFC9
:101F700020ED108A20E9F04F00F070FD0749086855
:101F8000B0E8F04F1EF0100F08BFB0EC108A80F3DD
:101F9000098861B6704700BF00BF00000002002042
:101FA00080B483B000AF7860044A7B68136000BFE0
:101FB0000C37BD465DF8047B704700BF000200206F
:101FC00080B400AF054B5B68044A43F08053536014
:101FD00000BFBD465DF8047B704700BF00ED00E028
:101FE00080B500AF1021184804F07EFB0346002B9B
:101FF00014BF01230023DBB2002B22D0124804F0CF
:10200000CFFA124B1B685A1C10490A6081B2104A61
:1020100022F8131010210C4804F090FB0B4B1B68A6
:10202000012B0ED90A4B5A88094B1B88D31A9BB235
:102030001A46084B1A60054B00221A60064B012213
:102040001A7000BF80BD00BF000C004030020020AD
:1020500034020020280200202C02002080B400AFAF
:1020600000BFBD465DF8047B7047000080B500AF3F
:10207000054B1B68002B02D1FFF7B2FF01E0FFF711
:10208000EDFF00BF80BD00BF2402002080B588B0F6
:1020900000AF414B1B68002B02D03F4B1B6876E022
:1020A0003E4B00221A603E4B00221A703D4B00222C
:1020B0001A60012003F0E0FE612004F057F80346A7
:1020C000002B0CBF01230023DBB2002B00D0F3E771
:1020D0000121082003F0AAFF4021334804F03FFB10
:1020E00001220021304804F0C7F90C233B82002371
:1020F0007B820123BB820C23FB8200233B8307F1FD
:1021000010031946284804F0F7F932233B770023DF
:102110007B770023BB770123FB7707F11C0318466D
:1021200003F048FE0121204804F0C6F91E4B0022AE
:102130001A82012210211C4804F0B2FA184B1B78B5
:10214000DBB283F00103DBB2002B00D0F6E71648C8
:1021500004F046F83B46184603F09EFE134B9B687E
:1021600003F4E053002B0CBF01230023DBB2002B50
:1021700006D0BA68094B1B68B2FBF3F3DB0006E03C
:10218000BB685A00054B1B68B2FBF3F3DB00184633
:102190002037BD4680BD00BF240200202802002059
:1021A0002C02002030020020000C004000380240C9
:1021B00080B584B002AF786039607B68012B10D1A4
:1021C0003B684FF6FF7293420BD14FF0FF33019300
:1021D0004FF0FF330093392338220321034801F0E5
:1021E00095FF00BF0837BD4680BD00BF0802002034
:1021F00080B500AF4FF6FF710120FFF7D9FF80BD1A
:1022000080B483B000AF0346FB7197F9073003F049
:102210001F03012202FA03F1054A97F907305B090F
:1022200042F8231000BF0C37BD465DF8047B7047B1
:1022300000E100E080B483B000AF0346FB7197F982
:102240000730DBB203F01F03012202FA03F1064A52
:1022500097F907305B09603342F8231000BF0C3751
:10226000BD465DF8047B704700E100E080B483B0B8
:1022700000AF03463960FB7197F90730002B0DDA88
:102280003B68DAB20E4997F90730DBB203F00F036F
:10229000043B1201D2B20B441A760BE03B68DBB26E
:1022A000084A97F9071008461B01D9B213180A46C5
:1022B00083F8002300BF0C37BD465DF8047B7047F0
:1022C00000ED00E000E100E090B583B000AF164BF8
:1022D0001B7883F00103DBB2002B1ED1FFF742F81D
:1022E000C7E90001D7E9000101F060FDFFF73AF806
:1022F0000A4601460D4BD3E90034994272EB0403C0
:10230000B4BF01230023DBB2002B08D1084B5B686C
:10231000074A43F08053536002E000BF00E000BF73
:102320000C37BD4690BD00BF240000206002002095
:1023300000ED00E080B582B000AF78607B68B3F15B
:10234000807F01D301230EE07B6823F07F43084A9E
:10235000013B53600F214FF0FF30FFF787FF044B25
:1023600000229A60002318460837BD4680BD00BF92
:1023700010E000E080B400AF044B03221A60002399
:102380001846BD465DF8047B704700BF10E000E0D2
:1023900080B400AF044B00221A6000231846BD46EB
:1023A0005DF8047B704700BF10E000E0B0B500AFFF
:1023B0000E4B1B68DB0819464FF000020C4BD3E9AB
:1023C000003403FB02F501FB04F00544A1FB03010B
:1023D0006B181946074A4FF00003FEF74FFB034600
:1023E0000C461846FFF7A6FF00BFB0BD1000002046
:1023F0000800002040420F00B0B500AF0F4B1B6833
:10240000DB0819464FF000020D4BD3E9003403FB03
:1024100002F501FB04F00544A1FB03016B1819460A
:10242000084A4FF00003FEF729FB03460C46184606
:10243000FFF780FFFFF79EFF00BFB0BD1000002038
:102440000800002040420F0080B500AFFFF7A0FF5A
:1024500000BF80BD90B482B000AFC7E90001054A5B
:10246000D7E90034C2E9003400BF0837BD4690BC4C
:10247000704700BF08000020F8B500AF01210A48EE
:1024800004F05CF91A20FFF7D5FE084BD3E90034BD
:1024900007494FF000025D1844EB0206034BC3E905
:1024A000005600BFF8BD00BF0048014038020020C0
:1024B0008096980080B588B000AF0023FB7701219B
:1024C0004FF4802003F0D2FD00214FF4802003F070
:1024D0002DFE3B46184603F0DFFC214803F080FE4A
:1024E0007A68FB68B2FBF3F3012B02D90223FB7776
:1024F00001E00123FB774EF660237B61FB68FA7FE6
:1025000002FB03F3174AA2FB0323DB0C9BB2013B44
:102510009BB23B8200237B8200233B830023BB765C
:1025200007F1100319460E4803F03AFF012201217A
:102530000B4804F0B5F801214FF4802003F098F91E
:102540000121074803F0B8FFFF211A20FFF78EFE94
:102550001A20FFF755FE00BF2037BD4680BD00BFE3
:1025600000480140819F5E16F0B587B000AF0023A0
:102570007B614FF000034FF00004C7E90234284BA1
:10258000D3E90034C7E90234264803F089FF034643
:102590007B61234BD3E90034D7E90212A24208BF82
:1025A000994200D0EBE74FF000034FF00004C7E979
:1025B000003419A4D4E90034C7E900347B694FEA38
:1025C000E3747A6803FB02F13A6804FB02F20A44FE
:1025D0003968A1FB033422441446C7E90034C7E933
:1025E0000034D7E90001104A4FF00003FEF746FA25
:1025F00003460C46C7E90034D7E90012D7E9023494
:10260000CD1842EB04062B463446184621461C37AB
:10261000BD46F0BDAFF30080AA21EF090000000025
:10262000380200200048014040420F0090B400AF43
:10263000054A4FF000034FF00004C2E9003400BF28
:10264000BD4690BC704700BF3802002080B400AF88
:10265000FEE780B400AF04205FEA0E01084202D01A
:10266000EFF3098001E0EFF30880416900BEFEE767
:1026700080B400AFFEE780B400AFFEE780B400AFE7
:10268000FEE780B400AFFEE780B584B000AF7860AD
:102690007B68FB7397F90F300A2B02D10D20FFF7EF
:1026A000F3FF97F90F301946144802F029F9034651
:1026B000B3F1FF3F0CBF01230023DBB2002B16D088
:1026C00000F03EFA0346002B07D04FF0FF326FF0C8
:1026D00000430A4801F0BCF8E3E7084802F095F926
:1026E000034683F00103DBB2002BDAD0F5E797F95C
:1026F0000F3018461037BD4680BD00BF08020020CD
:1027000080B400AF00BFBD465DF8047B704780B465
:1027100000AF00BFBD465DF8047B704780B500AFD9
:10272000194B5B68184A23F080435360174BD3F86A
:102730008830164A43F47003C2F88830144B1B6883
:10274000134A43F001031360114B00229A60104BAF
:102750001B680F4A23F0847323F4803313600C4BFF
:102760000C4A5A600A4B1B68094A23F48023136001
:10277000074B0022DA6000F08DF8044B4FF0006246
:102780009A6000BF80BD00BF30EF00E000ED00E0C8
:10279000003802401030002480B487B000AF00231E
:1027A0003B6100237B610223FB600023BB600223AB
:1027B0007B60334B9B6803F00C033B613B69042B4C
:1027C00009D03B69082B0AD03B69002B3DD12D4B2A
:1027D0002D4A1A603DE02B4B2C4A1A6039E0284BF9
:1027E0005B689B0D03F00103BB60254B5B6803F046
:1027F0003F037B60BB68002B0CD0244A7B68B2FB94
:10280000F3F31F4A52689209C2F3080202FB03F372
:102810007B610BE01C4A7B68B2FBF3F3184A5268F9
:102820009209C2F3080202FB03F37B61144B5B685D
:102830001B0C03F0030301335B00FB607A69FB6848
:10284000B2FBF3F30F4A136003E00E4B0E4A1A601B
:1028500000BF0B4B9B681B0903F00F030C4AD35CB2
:10286000DBB23B61074B1A683B6922FA03F3054A66
:10287000136000BF1C37BD465DF8047B704700BF86
:1028800000380240100000200024F40000127A00FA
:102890001400002080B483B000AF00237B600023CD
:1028A0003B60694B1B68684A43F480331360664B96
:1028B0001B6803F400333B607B6801337B603B683B
:1028C000002B03D17B68B3F5A04FF0D15E4B1B68A2
:1028D00003F40033002B02D001233B6001E000230E
:1028E0003B603B68012B43D1574B1B6C564A43F06E
:1028F00080531364554B1B68544A43F440431360A0
:10290000514B514A9B6893604F4B9B684E4A43F42E
:10291000004393604C4B9B684B4A43F4A053936035
:10292000494B4B4A5A60484B1B68474A43F08073F7
:10293000136000BF444B1B6803F00073002BF9D0F9
:10294000444B40F205721A603F4B9B683E4A23F0AD
:10295000030393603C4B9B683B4A43F00203936044
:1029600000BF394B9B6803F00C03082BF9D165E0DD
:10297000354B1B6C344A43F080531364334B1B6854
:10298000324A43F4004313602F4B1B6C2E4A43F032
:102990008053136400BF2C4B1B6803F00203002B11
:1029A000F9D02A4B1B68294A43F080031360264B59
:1029B0001B68254A23F08073136000BF224B1B68FD
:1029C00003F00073002BF9D11F4B234A5A601E4BB2
:1029D0001B681D4A43F08073136000BF1A4B1B68CD
:1029E00003F00073002BF9D01A4B40F202721A6008
:1029F000184B1B6803F00F03022B00D0FEE7124BAD
:102A00009B68114A43F00203936000BF0E4B9B6822
:102A100003F00803082BF9D10B4B9B680A4A23F0FB
:102A2000F0039360084B9B68074A43F4805393601C
:102A3000054B9B68044A23F46043936000BF0C3746
:102A4000BD465DF8047B70470038024000700040CE
:102A500008544027003C02401054002780B582B043
:102A600000AF7860044B1B687A681A6200F026F8A1
:102A700000BF0837BD4680BDB802002098B500AF42
:102A80000B4B1A684FF000034FF00004C2E90A3400
:102A9000074B1B68074A1360074B01221A60044B5F
:102AA0001B68184600F030FAFFF744FA00BF98BDE3
:102AB00028000020B80200200402002090B585B054
:102AC00000AF1C4BD3E90034591C44F10002194BF0
:102AD000C3E90012184BD3E90034C7E90234D7E93F
:102AE0000234234303D1FEF73DFCC7E90201124A39
:102AF0004FF000034FF00004C2E900340F4B1B6895
:102B00007B607B68002B04D1D7E9020100F068FBF1
:102B100078600A4B00221A60064BD3E900347A68C9
:102B2000C2E91234786800F0EFF900BF1437BD46EF
:102B300090BD00BF48020020580200205002002033
:102B400080B400AF054B1B68002BCCBF01230023D2
:102B5000DBB21846BD465DF8047B704704020020D6
:102B600080B483B000AF786039607B68012B09D1F5
:102B70003B684FF6FF72934204D1054B23F00703E5
:102B8000044A136000BF0C37BD465DF8047B7047F4
:102B90003C0200204002002080B500AF4FF6FF71DC
:102BA0000120FFF7DDFF80BD80B483B000AF786007
:102BB0007B6800221A607B6800225A607B680022D2
:102BC0009A607B680022DA607B6818460C37BD4645
:102BD0005DF8047B704780B586B000AF786000F088
:102BE000D5F93861386900F0B7F9F86040F2EB3098
:102BF00001F0C7F8034601337B617B69002B43D0AA
:102C00007B681B68002B2CD07B681B683A699A4252
:102C100027D07B681B68184600F09EF90246FB68C7
:102C20009342CCBF01230023DBB2002B05D07B688D
:102C30001B68F968184600F09BF97B681B68002B3D
:102C40000CD07B681B683A699A4207D07A684FF0CB
:102C5000FF306FF0004100F0C1F9EEE77B68002221
:102C6000DA607B683A691A607B68FA685A607B6848
:102C7000DB685A1C7B68DA607B69013B184601F00F
:102C800080F800237B61B8E700F006F900BF183731
:102C9000BD4680BD80B586B000AF786000F076F9A3
:102CA000F86000237B617B681B68FA689A423BD11D
:102CB0007B68DB685A1E7B68DA607B68DB68002B08
:102CC00034DC40F2EB3001F05CF8034601333B6149
:102CD0003B69002B1ED07B685B6801333B617B68DE
:102CE00000225A607B6800221A60786800F050FB6E
:102CF00078617B69002B05D07B687A691A607869F6
:102D000000F050F93B69013B184601F03AF8002306
:102D10003B61DDE77B69002B09D07B685B68002B9A
:102D200005D100F0B9F802E000BF00E000BF18379D
:102D3000BD4680BD80B483B000AF78607B685B68BF
:102D400018460C37BD465DF8047B704780B483B0ED
:102D500000AF786000BF0C37BD465DF8047B70475C
:102D600090B587B000AFF860B9607A603B60FB68EF
:102D7000181D0023BA682E49FEF748FA2D4AFB6851
:102D80001A60FB683A685A61FB685B69184600F094
:102D900065FF0246FB68DA61FB68DA69FB685B691C
:102DA000043B134423F007031A46FB689A61FB684F
:102DB0009B697B61FB68DB691A467B699A4206D88E
:102DC0007B691D4A1A607B69043B7B61F2E7FB6803
:102DD0009B69F9681846FFF77BF80246FB681A62A0
:102DE000FA684FF000034FF00004C2E91234FB68A8
:102DF0007A685A62FA684FF000034FF00004C2E9A3
:102E00000A34FB6800221A63FA684FF0FF336FF050
:102E10000044C2E90E34FA684FF000034FF000049A
:102E2000C2E91034FB6818461C37BD4690BD00BF90
:102E3000BC020020E07A0008EFBEADDE80B582B0B3
:102E400000AF78600C4A7B681A607B6804331846D0
:102E5000FFF770FF034619460848FEF757F9084880
:102E6000FEF79CF97B6804331846FEF717FA7B6877
:102E700018460837BD4680BDE07A00082076000875
:102E80002476000880B483B000AF786000BF0C37B0
:102E9000BD465DF8047B704790B585B000AF174B19
:102EA0001B7883F00103DBB2002B20D1FEF75AFA26
:102EB000C7E90201D7E9020100F092F9786000F059
:102EC00065F802467B6893420CBF01230023DBB206
:102ED000002B0ED10A4A7B6813600A4AD7E90234F4
:102EE000C2E90034FFF7B0FAFFF76AF802E000BF6A
:102EF00000E000BF1437BD4690BD00BF2400002095
:102F0000500200205802002080B582B000AF7860E7
:102F10000E4A7B6813600E4B1B680E4A9342D4BF67
:102F200001230023DBB2002B04D0094B1B680133C3
:102F3000074A1360FFF760FA7B681B6A1846FFF7C1
:102F40002FF800BF0837BD4680BD00BFB802002083
:102F500004020020FEFF0F0080B483B000AF786051
:102F60007B685B6A18460C37BD465DF8047B70478A
:102F700080B483B000AF786039607B683A685A6289
:102F800000BF0C37BD465DF8047B704780B400AFCE
:102F9000034B1B681846BD465DF8047B704700BFB5
:102FA000B802002090B482B000AF78600A4A4FF0B7
:102FB00000034FF00004C2E900347B6800221A636A
:102FC0007A684FF000034FF00004C2E90A3400BFF2
:102FD0000837BD4690BC70476002002090B587B0AE
:102FE00000AFC7E902017A60FFF7D0FF386140F215
:102FF000EB3000F0C6FE034601337B617B69002B9A
:103000000FD03B697A681A633A69D7E90234C2E99A
:103010000A347B69013B184600F0B3FE00237B6154
:10302000ECE7FFF739FF3B6900221A633B69D3E9FC
:103030000A342343002B0CBF01230023DBB2002BF7
:1030400001D0012300E0002318461C37BD4690BD87
:10305000B0B582B000AF2E48FEF732FE2D4B1B6894
:10306000002B03D02B4B1B68043B00E000237B604C
:103070007B68002B28D07B685C6A7B685D697B6815
:1030800004331846FFF756FE03462A4621462248D7
:10309000FEF716FE7B681B680C331B687868984740
:1030A0007A684FF000034FF00004C2E90A347B68ED
:1030B00004331846FEF7C6F90346002B01D0043B43
:1030C00000E000237B60D3E71448FEF7F9FD114BC5
:1030D0001B68002B03D00F4B1B68043B00E0002350
:1030E0003B603B68002B0FD03868FFF7CBFE3B6896
:1030F00004331846FEF7A6F90346002B01D0043B23
:1031000000E000233B60ECE700BF0837BD46B0BDE0
:1031100034760008BC020020487600086C7600086F
:1031200090B583B000AF78600C4A7B6813607A6812
:103130004FF000034FF00004C2E90A347B681B68BB
:1031400008331B68786898477A684FF0FF336FF050
:103150000044C2E90A34FFF79FFEF5E7B8020020F9
:1031600080B582B000AF786078684FF4FA630022CF
:103170000549FFF7F5FD054A7B681A607B6818462C
:103180000837BD4680BD00BF70760008C87A0008C9
:10319000F0B583B000AF7860094BD3E900345D1C13
:1031A00044F10006064BC3E900567B68002118462F
:1031B000FFF7DEFEFFF7A4FAFFF76EFEECE700BFB5
:1031C000D002002080B582B000AF78600348FEF7DF
:1031D00077FD00BF0837BD4680BD00BF7C76000884
:1031E000F0B585B000AFC7E90001634BFB60D7E9DC
:1031F00000345FA2D2E900125D1844EB02065F4B77
:10320000C3E900565E4B1B68002B03D05C4B1B6868
:10321000043B00E00023BB60BB68002B6FD0BB68A1
:10322000D3E90A12D7E90034994272EB0403B4BF20
:1032300001230023DBB2002B31D0B868FFF78CFEEE
:103240000446F868FFF788FE03469C42CCBF012382
:103250000023DBB2002B01D0BB68FB60B868FFF72E
:103260007BFE0446F868FFF777FE03469C420CBFDE
:1032700001230023DBB2002B34D0BB68D3E9121248
:10328000FB68D3E91234A24208BF994234BF01233C
:103290000023DBB2002B25D0BB68FB6022E0B868BE
:1032A000FFF75AFE0446F868FFF756FE03469C42B5
:1032B000ACBF01230023DBB2002B13D0BB68D3E9E2
:1032C0000A342E4AD2E90012994272EB040303DA5F
:1032D0002A4BD3E9003402E0BB68D3E90A34274A19
:1032E000C2E90034BB6804331846FEF7ABF8034666
:1032F000002B01D0043B00E00023BB608CE7FB689F
:103300001B6A1A46FB68DB69D31AB3F5967F13DA9A
:10331000F968FB681B6A1A46FB68DB69D31A1A4610
:103320001848FEF7CDFCFA684FF0FF336FF0004409
:10333000C2E90A34104BFB60FB68DB691B68124A68
:1033400093420DD0FB6819461048FEF7B9FCFA68A5
:103350004FF0FF336FF00044C2E90A34064BFB60C4
:10336000FB6818461437BD46F0BD00BFAFF30080C0
:1033700000E1F50500000000680200206002002066
:10338000BC02002090760008EFBEADDEBC760008DF
:1033900090B585B000AF78602E4BFB602E4B1B685C
:1033A000002B03D02C4B1B68043B00E00023BB60C8
:1033B000BB68002B43D0BB681B6B7A689A4231D143
:1033C000B868FFF7C9FD0446F868FFF7C5FD034676
:1033D0009C42CCBF01230023DBB2002B02D0BB6890
:1033E000FB601FE0B868FFF7B7FD0446F868FFF719
:1033F000B3FD03469C420CBF01230023DBB2002B2C
:1034000010D0BB68D3E91212FB68D3E91234A24290
:1034100008BF994234BF01230023DBB2002B01D047
:10342000BB68FB60BB6804331846FEF70BF8034625
:10343000002B01D0043B00E00023BB60B8E7FB6831
:10344000044A934201D1002300E0FB681846143778
:10345000BD4690BD68020020BC02002080B582B04D
:1034600000AF7860054A7B681A607B681846FFF7F2
:10347000E5FC7B6818460837BD4680BDC87A000861
:1034800080B582B000AF78607868FFF7E7FF502121
:103490007868FDF739FF7B6818460837BD4680BD60
:1034A00080B582B000AF786039607B68012B0CD1A9
:1034B0003B684FF6FF72934207D10648FFF750FE74
:1034C000054A0649034803F091FF00BF0837BD468F
:1034D00080BD00BF68020020FC0100205D340008B0
:1034E00080B500AF4FF6FF710120FFF7D9FF80BD17
:1034F00080B483B000AF786000BF0C37BD465DF884
:10350000047B704780B584B000AFF860B9607A6022
:10351000FB68181D0023BA680849FDF777FE084AC2
:10352000FB681A60FB687A685A61FB6801221A76A8
:10353000FB6818461037BD4680BD00BFCC02002096
:10354000F87A000880B582B000AF7860074A7B68DF
:103550001A600748FDF722FE7B6804331846FDF722
:103560009DFE7B6818460837BD4680BDF87A000886
:10357000E476000880B582B000AF78607868FFF725
:10358000E1FF1C217868FDF7BFFE7B68184608370D
:10359000BD4680BD80B483B000AF78607B680122F7
:1035A0001A7600BF0C37BD465DF8047B704780B4C7
:1035B00083B000AF78607B6800221A7600BF0C37BA
:1035C000BD465DF8047B704780B485B000AFF860FD
:1035D000B9607A603B604FF0FF3318461437BD4640
:1035E0005DF8047B7047000090B583B000AF154BC9
:1035F0001B68002B03D0134B1B68043B00E0002327
:103600007B607B68002B19D07B685C697B68043326
:103610001846FFF78FFB03461A4621460A48FDF776
:1036200075FD7B6804331846FDF70CFF0346002B3D
:1036300001D0043B00E000237B60E2E700BF0C37D1
:10364000BD4690BDCC020020F876000880B489B059
:1036500000AFF860B9607A607B68FB610023BB61F2
:10366000BA69BB689A422BDABB69FA6813441B78C3
:10367000FB7500233B613B69072B1DDC97F9172085
:10368000FB691B12534003F08003002B08D0FB6939
:103690005B0083F4815383F001039BB2FB6103E081
:1036A000FB695B009BB2FB6197F917305B00FB7510
:1036B0003B6901333B61DEE7BB690133BB61CFE7A7
:1036C000FB6918462437BD465DF8047B704780B51A
:1036D00086B000AF78607B683B617868FDF7ECFDF1
:1036E00003464FF6FF7219463869FFF7AFFF0346EE
:1036F000FB81FB891B0A9BB2FB75FB89BB755E23B3
:10370000BB60FB7D202B02D9FB7D7D2B0AD9FB7D85
:10371000BA68B3FBF2F2B96801FB02F29B1ADBB2A2
:103720002033FB75BB7D202B02D9BB7D7D2B0AD9B5
:10373000BB7DBA68B3FBF2F2B96801FB02F29B1AD7
:10374000DBB22033BB75FB7D1B021AB2BB7D1BB203
:1037500013431BB29BB218461837BD4680BD0FB449
:1037600080B400AF00231846BD465DF8047B04B06A
:10377000704780B483B000AF786000BF0C37BD469F
:103780005DF8047B70470FB480B400AF0023184687
:10379000BD465DF8047B04B070470FB480B400AF41
:1037A00000231846BD465DF8047B04B0704780B422
:1037B00083B000AF7860002318460C37BD465DF833
:1037C000047B704780B483B000AF78600023184654
:1037D0000C37BD465DF8047B70470FB480B400AF72
:1037E00000231846BD465DF8047B04B070470FB453
:1037F00080B400AF00231846BD465DF8047B04B0DA
:1038000070470FB480B400AF00231846BD465DF882
:10381000047B04B07047000080B483B000AF7860D0
:103820000A4A7B681A607B6800221A617B68002262
:103830005A607B6800229A607B680022DA607B68AD
:1038400018460C37BD465DF8047B7047187B0008AE
:1038500090B585B000AFF860C7E90023FEF728FBFC
:10386000FB681B6810331B68F86898470346002BF9
:1038700002D0FEF725FB0EE0FFF788FB0246FB684F
:103880009A60FB689A68D7E90034C2E90A34FEF707
:1038900017FBFFF701FB1437BD4690BD80B582B022
:1038A00000AF78607B689B68002B04D07B689B68C6
:1038B0001846FFF777FB7B6800229A607B681B69DC
:1038C000002B07D07B681A697B681B691B681B6823
:1038D0001046984700BF0837BD4680BD80B582B00E
:1038E00000AF78607B685B68002B04D07B685B6806
:1038F0001846FFF757FB7B6800225A607B681B69FC
:10390000002B08D07B681A697B681B691B6804332D
:103910001B681046984700BF0837BD4680BD80B57C
:1039200082B000AF78607B68DB68002B04D07B68D6
:10393000DB681846FFF736FB7B680022DA607B689D
:103940001B69002B08D07B681A697B681B691B68A0
:1039500008331B681046984700BF0837BD4680BD36
:1039600080B400AF034B1B681846BD465DF8047B6E
:10397000704700BF2C00002080B588B000AF012345
:103980003B6097F90330012B0CBF01230023DAB20F
:103990006E4B1A70FEF74AFE6D48FEF791F96D4BBB
:1039A0001B68002B03D06B4B1B68043B00E000231B
:1039B000FB61FB69002B11D0FB691B681B68F86970
:1039C0009847FB6904331846FDF73CFD0346002B7E
:1039D00001D0043B00E00023FB61EAE75E4B1B687B
:1039E000002B03D05C4B1B68043B00E00023BB6151
:1039F000BB69002B12D0BB691B6808331B68B86910
:103A00009847BB6904331846FDF71CFD0346002B9D
:103A100001D0043B00E00023BB61E9E74F48FEF71B
:103A20004FF94F4B1B68002B03D04D4B1B68043BD9
:103A300000E000237B617B69002B22D07B6904338B
:103A40001846FDF7FFFC0346002B01D0043B00E0C5
:103A50000023BB607B691B7F002B06D07B6904338E
:103A600040491846FDF7F2FB08E07B691A1D7B69A7
:103A70005B69143319461046FDF7E8FBBB687B61B0
:103A8000D9E7394B1B68002B4DD03848FEF718F9A1
:103A9000354B1B68002B03D0334B1B68043B00E005
:103AA00000233B613B69002B3DD03B690433184642
:103AB000FFF740F901463B69DA693B691B6A2C480C
:103AC000FEF7FEF83B695B69002B03D03B695B693D
:103AD000043B00E00023FB60FB68002B16D0FB6872
:103AE00004331846FFF726F9034619462148FEF726
:103AF000E7F8FB6804331846FDF7A4FC0346002BE7
:103B000001D0043B00E00023FB60E5E73B690433A0
:103B10001846FDF797FC0346002B01D0043B00E05C
:103B200000233B61BEE71448FEF7CAF800F0B0F985
:103B300078607B68002B03D079681048FEF7C0F8E6
:103B4000FFF786FA00BF2037BD4680BDDC020020AB
:103B50000C770008C4020020CC0200203C7700084B
:103B6000C802002038010020D80200206077000839
:103B70007C770008A8770008B4770008C8770008A9
:103B80002DE9F04184B002AF78603960254A7B6846
:103B90001360254A3B681360FEF748F9234A24491D
:103BA0002448FEF78DF8FFF71FFDFFF7E5FE03F051
:103BB00083F903461D4603F09DF9064603F0A4F978
:103BC000804603F085F9044603F08BF90346019320
:103BD00000944346324629461748FEF771F8FFF72E
:103BE000BFFE0446FFF7BCFE03461A4621461348B3
:103BF000FEF766F81248FEF763F800F025F842F287
:103C000010704FF00001FEF725FCFEF7CFFB0D48CA
:103C1000FEF756F8FEF732FF002318460837BD4678
:103C2000BDE8F081E0020020E4020020E477000813
:103C3000FC77000808780008387800089C780008AD
:103C4000BC780008F478000880B500AF0248FEF7A1
:103C500037F800BF80BD00BF2879000880B584B068
:103C600000AF78607B68002B01DA002331E07B68CD
:103C7000073323F007037B607B68B3F5204F04DD37
:103C80001648FDF78BFA002323E0154B1B68002B29
:103C900014BF01230023DBB2002B02D01148FDF733
:103CA0007DFA114B1A687B681344B3F5204F04DB8F
:103CB0000A48FDF773FA00230BE00B4B1B680B4A15
:103CC0001344FB60084B1A687B681344064A136070
:103CD000FB6818461037BD4680BD00BF407900081C
:103CE0000402002054790008E8A20020E802002025
:103CF00090B484B000AFF860C7E90023FA68D7E950
:103D00000034C2E90E34FA68D7E90634C2E9103447
:103D100000BF1037BD4690BC7047F0B587B002AF0A
:103D200078607B68D3E91034234307D100224FF039
:103D3000FF306FF00041FFF751F9F2E77B68D3E9FC
:103D40000E34002218462146FFF748F9FDF70AFB1A
:103D5000C7E902017B68D3E90E017B68D3E91056FD
:103D6000D7E90234CDE900342A463346FDF703FB98
:103D700003460C467A68C2E90E3400BF1437BD46CC
:103D8000F0BD80B584B000AF7860FFF7FFF8F86051
:103D9000F868FFF7E1F8B8607968F868FFF7E8F8C5
:103DA000BB6818461037BD4680BD00002DE9F043C2
:103DB00087B002AFC7E900010023FB60334B1B68EB
:103DC000002B03D0314B1B68043B00E00023BB6099
:103DD000BB68002B53D0BB68D3E90612D7E9003487
:103DE000994272EB04033DDABB68D3E908342343FC
:103DF00007D1BA684FF0FF336FF00044C2E90634D0
:103E000027E0BB68D3E90612BB68D3E90834CD18B4
:103E100042EB0406BB68C3E90656BB68D3E9061249
:103E2000D7E90034994272EB040312DABB68D3E994
:103E30000601BB68D3E90889D7E90034CDE900342D
:103E400042464B46FDF797FA03460C46BA68C2E96C
:103E50000634BB681B6808331B68B8689847FB6862
:103E60000133FB60BB6804331846FDF7EBFA0346E9
:103E7000002B01D0043B00E00023BB60A8E7FB68F7
:103E800018461437BD46BDE8F08300BFC0020020CD
:103E900080B582B000AF00237B60144B1B68002B01
:103EA00003D0124B1B68043B00E000233B603B68DF
:103EB000002B15D03B681B680C331B68386898478B
:103EC0007B6801337B603B6804331846FDF7BAFA20
:103ED0000346002B01D0043B00E000233B60E6E7F3
:103EE0007B6818460837BD4680BD00BFC002002071
:103EF00080B483B000AF7860044A7B681A607B6846
:103F000018460C37BD465DF8047B7047EC7B000813
:103F100080B582B000AF78607868FFF7E9FF0421D0
:103F20007868FDF7F1F97B6818460837BD4680BD13
:103F300080B584B000AFF860B9607A603B60044837
:103F4000FDF72CF9002318461037BD4680BD00BF91
:103F50007C79000880B483B000AF0346FB7197F909
:103F6000073003F01F03012202FA03F1054A97F913
:103F700007305B0942F8231000BF0C37BD465DF8DF
:103F8000047B704700E100E080B483B000AF0346DB
:103F9000FB7197F90730DBB203F01F03012202FA2D
:103FA00003F1064A97F907305B09203342F82310E2
:103FB00000BF0C37BD465DF8047B704700E100E0B0
:103FC00080B483B000AF0346FB7197F90730DBB2D2
:103FD00003F01F03012202FA03F1064A97F90730A2
:103FE0005B09603342F8231000BF0C37BD465DF813
:103FF000047B704700E100E080B582B000AF7860DC
:1040000078684FF4FA6364220549FEF7A9FE054A71
:104010007B681A607B6818460837BD4680BD00BFC4
:10402000047A00087C7B000880B582B000AF78601D
:104030007B683433184601F0C7F97B6803F5A07339
:10404000184601F0C1F97B6818460837BD4680BDA7
:10405000F0B587B002AF7860274B1B78DBB283F0F6
:104060000103DBB2002B0FD0FDF77CF90A460146B5
:104070001FA4D4E90034CD1842EB040600222846E0
:104080003146FEF7ABFFE7E779681C4B4FF00004C1
:10409000CDE900341A4A4FF000030846FFF728FE26
:1040A0007B681846FFF739FE0123002B1CD0012343
:1040B000FB60FB68032BF3DC124AFB684FF41371BF
:1040C00001FB03F3134420331B78002B08D0FB685B
:1040D000013B0D4A52F823300021184601F077FCCD
:1040E000FB680133FB60E4E700BF1437BD46F0BD59
:1040F00000E40B540200000000B3002080969800FA
:1041000040420F00ECA200203C00002080B588B0A7
:1041100004AFF860084611461A460346FB720B4688
:104120003B811346FB80FB681846FFF775FB184A76
:10413000FB681A60FB7A002B02D0FB7A062B07D9AA
:10414000FB68144A9A61FB689B69FA7A1A701AE054
:10415000FB7A4FF4137202FB03F30E4A1A44FB6816
:104160009A61FB689869B7F90810FA7AB7F91C30B8
:104170000293B7F918300193B7F9063000930B4654
:10418000F96800F08CFCFB6818461037BD4680BD0E
:10419000947B0008ECA2002080B500AF034800F03B
:1041A000CDFE2520FFF70CFF00BF80BD38A5002005
:1041B00080B500AF034800F0C1FE2620FFF700FFE6
:1041C00000BF80BD84A7002080B500AF034800F089
:1041D000B5FE2720FFF7F4FE00BF80BDD0A9002068
:1041E00080B500AF034800F0A9FE3420FFF7E8FED9
:1041F00000BF80BD1CAC002080B500AF034800F0BC
:104200009DFE3520FFF7DCFE00BF80BD68AE0020BC
:1042100080B500AF034800F091FE4720FFF7D0FEC5
:1042200000BF80BDB4B0002080B500AF0D490E487E
:1042300001F048FC0346002B14BF01230023DBB22E
:10424000002B0AD00749084801F094FC4620FFF7EC
:10425000B7FE064800F086FD02E04620FFF7B0FEFC
:1042600000BF80BD00800028B864024038A500204F
:1042700080B500AF0D490E4801F024FC0346002B29
:1042800014BF01230023DBB2002B0AD007490848E2
:1042900001F070FC1120FFF793FE064800F062FD6C
:1042A00002E01120FFF78CFE00BF80BD00802020BF
:1042B000A060024084A7002080B500AF0D490E48E1
:1042C00001F000FC0346002B14BF01230023DBB2E6
:1042D000002B0AD00749084801F04CFC0E20FFF7DC
:1042E0006FFE064800F03EFD02E00E20FFF768FE7C
:1042F00000BF80BD0080001858600240D0A9002097
:1043000080B500AF0D490E4801F0DCFB0346002BE1
:1043100014BF01230023DBB2002B0AD00749084851
:1043200001F028FC4420FFF74BFE064800F05EFD3C
:1043300002E04420FFF744FE00BF80BD008800205B
:104340008864024038A5002080B500AF0D490E48B2
:1043500001F0B8FB0346002B14BF01230023DBB29E
:10436000002B0AD00749084801F004FC1020FFF791
:1043700027FE064800F03AFD02E01020FFF720FE7D
:1043800000BF80BD008800208860024084A7002014
:1043900080B500AF0D490E4801F094FB0346002B99
:1043A00014BF01230023DBB2002B0AD007490848C1
:1043B00001F0E0FB0C20FFF703FE064800F016FDBD
:1043C00002E00C20FFF7FCFD00BF80BD008800105C
:1043D00028600240D0A9002080B582B000AF78608C
:1043E00039607B689B691B78002B04D07B689B69D4
:1043F0001B78062B02D94FF0FF3307E07B689B69DF
:104400003968184600F044FF034600BF18460837D5
:10441000BD4680BD90B58FB000AFF8600B467A60A6
:10442000FB72FB689B691B7887F8373097F8373049
:10443000002B03D097F83730062B02D94FF0FF330B
:10444000CBE0FB689B695B693B6307F1200318467F
:1044500002F002FCFB689B699B683B62FB689B69FE
:104460005B689BB2BB85FB7A012B11D0022B77D006
:10447000002B40F09F807B68002B06DD7B683B6251
:10448000FB689B697A689A6098E04FF0FF33A4E07C
:1044900097F83730042B0BD097F83730052B07D01F
:1044A00097F83730072B03D097F83730082B02D115
:1044B0004FF0FF3391E007F11803184601F016FCA6
:1044C00007F11003184601F011FC7B68002B2BDD6F
:1044D000FB689B69B3F91C30B3F1FF3F24D04FF464
:1044E0004073BB85FB689B694FF440725A60FB6860
:1044F0009B69B3F91C40FB689B69184600F024FED9
:1045000003461946204602F039FEFB689B69B3F961
:104510001E40FB689B69184600F016FE03461946CC
:10452000204602F02BFE48E0FB689B69B3F91C3083
:10453000B3F1FF3F41D00023BB85FB689B6900229C
:104540005A60FB689B69B3F91C30184602F065FE9F
:10455000FB689B69B3F91E30184602F05EFE2CE042
:10456000FB689B691B78032B02D94FF0FF3334E0C3
:10457000FB689B69184600F0CDFA7B68B3F5807F35
:1045800005DDFB689B694FF480721A6303E0FB68EA
:104590009B697A681A63FB689B69012283F8202073
:1045A000FB689B69184600F07BFC0E4B01221A70D9
:1045B000002312E04FF0FF330FE000BF0021386B03
:1045C00002F067FB07F120031946386B02F08AFA04
:1045D0000121386B02F05DFB002318463C37BD46D5
:1045E00090BD00BF00B3002080B584B000AF7860FC
:1045F0007B689B691B78002B57D07B689B691B7875
:10460000062B52D87B689B695B69FB607B689B6962
:10461000184600F0CDFD03461846FFF7B5FCF868D4
:1046200002F0D4F97B689B69B3F91A30184602F09E
:10463000F4FD7B689B69B3F91830184602F0EDFD74
:104640007B689B695B68B3F5407F05D07B689B699D
:104650005B68B3F5807F0DD17B689B69B3F91C3033
:10466000B3F1FF3F06D07B689B69B3F91C30184655
:1046700002F0D3FD7B689B695B68B3F5407F05D092
:104680007B689B695B68B3F5007F0FD17B689B6992
:10469000B3F91E30B3F1FF3F08D07B689B69B3F9D3
:1046A0001E30184602F0B9FD00E000BF1037BD46CD
:1046B00080BD80B588B000AFF860B9607A60FB68F3
:1046C0009B691B78002B04D0FB689B691B78062B29
:1046D00002D94FF0FF3353E07B68002B01DC00234D
:1046E0004EE000237B610023FB61FB689B69343350
:1046F00007F114021146184600F078FEB861BB6954
:10470000002B3CD07B697A689A4201DA7B687B6136
:104710000023FB617B69FA699A420CDAFB69BA698A
:1047200013441978FB69BA6813444AB21A70FB69DA
:104730000133FB61EEE7FB689B6934337A6911460C
:10474000184600F082FEFB689B6993F82030002B2E
:104750000BD0FB689B6993F82830DBB283F0010330
:10476000DBB2002B01D0012300E00023002B04D09A
:10477000FB689B69184600F093FB7B6900E000230F
:1047800018462037BD4680BD80B588B000AFF860C0
:10479000B9607A60FB689B691B78002B04D0FB68CA
:1047A0009B691B78062B02D94FF0FF3361E07B68D1
:1047B000002B01DC00235CE00023FB61FB689B69AC
:1047C00003F5A07307F114021146184600F052FEDB
:1047D000B861BB69002B4BD07B697A689A4201DDD6
:1047E0007B697B600023FB61FA697B689A420DDA82
:1047F000FB69BA68134493F90010FB69BA69134462
:10480000CAB21A70FB690133FB61EDE7FB689B6973
:1048100003F5A0737968184600F06CFEFB689B698D
:104820005B69002240F22661184602F086FAFB68B6
:104830009B6993F82030002B0FD0FB689B6993F89D
:104840002130DBB283F00103DBB2002B0ED0FB681A
:104850009B69184600F002FB08E0FB689B695B69F6
:10486000012240F22771184602F067FA7B6800E0E7
:10487000002318462037BD4680BD80B584B000AF08
:1048800078607B689B691B78002B04D07B689B69F0
:104890001B78062B02D94FF0FF332DE00023BB73AA
:1048A0007B689B69343307F10E021146184600F00D
:1048B00036FE0346FB737B689B6993F82030002B20
:1048C0000BD07B689B6993F82830DBB283F001033F
:1048D000DBB2002B01D0012300E00023002B04D029
:1048E0007B689B69184600F0DBFAFB7B002B01D04C
:1048F000BB7B01E04FF0FF3318461037BD4680BD4B
:1049000080B584B000AF78600B46FB707B689B6914
:104910001B78002B04D07B689B691B78062B02D97F
:104920004FF0FF333CE07B689B6903F5A073FA7896
:10493000FA7307F10F021146184600F01CFE0346F9
:10494000002B2BD07B689B695B69002240F22661BB
:10495000184602F0F2F97B689B6993F82030002B2F
:104960000FD07B689B6993F82130DBB283F00103A1
:10497000DBB2002B0ED07B689B69184600F06EFA04
:1049800008E07B689B695B69012240F22771184649
:1049900002F0D3F997F90330DBB201E04FF0FF33B7
:1049A00018461037BD4680BD80B584B000AF786032
:1049B0000B46FB707B689B691B78002B04D07B68DF
:1049C0009B691B78062B02D94FF0FF3319E0FB7867
:1049D000002B02D0012B08D011E07B689B69343397
:1049E000184600F0F4FD03460BE07B689B691B69E9
:1049F000FB607B689B6900221A61FB6801E04FF055
:104A0000FF3318461037BD4680BD80B582B000AF79
:104A100078607B689B691B78002B04D07B689B695E
:104A20001B78062B01D9002317E07B689B6903F5EF
:104A3000A073184600F0EAFD0346002B0BD07B68FC
:104A40009B695B694021184602F0BFF90346012BC0
:104A500001D1012300E0002300BF18460837BD46FE
:104A600080BD80B582B000AF78607B689B691B78A1
:104A7000002B04D07B689B691B78062B01D900238F
:104A800009E07B689B693433184600F0BFFD03469C
:104A900083F00103DBB218460837BD4680BD80B500
:104AA00084B000AFF860B96011461A460B46FB713E
:104AB0001346BB80FB68FA791A70FB684FF4E13249
:104AC0009A60FB6800225A60FB68BA68DA60FB688B
:104AD000002283F82020FB68002283F82120FB6855
:104AE000002283F82820F86800F08EFB0246FB685D
:104AF0005A61FB68BA881A83FB683A8B5A83FB6851
:104B0000BA8B9A83FB683A8CDA8300BF1037BD46B4
:104B100080BD000080B592B000AF78607B681B78E4
:104B2000002B00F0B5807B681B78032B00F2B0806F
:104B300000F0EAF97B681B78013B584A52F82330B1
:104B40007B6407F10803184600F00AFF4FF000638A
:104B5000BB607B685B690433FB6000233B614023DF
:104B60007B611023BB610023FB614FF480633B62D8
:104B700000237B620023BB620023FB624FF480337F
:104B80003B6300237B630123BB630023FB630023A0
:104B90003B6407F108031946786C00F089FE012296
:104BA0001021786C00F054FF7B685B690122802142
:104BB000184602F09EF87B681B78013B384A52F891
:104BC00023307B6407F10803184600F0C9FE4FF05C
:104BD0000063BB607B685B690433FB6000233B615F
:104BE00000237B611023BB610023FB614FF48063D2
:104BF0003B6200237B620023BB620023FB624FF415
:104C000080333B6300237B630123BB630023FB638F
:104C100000233B6407F108031946786C00F048FE56
:104C200001221021786C00F013FF7B685B69002281
:104C300040F22551184602F080F87B685B6901223A
:104C40006021184602F079F87B685B6901224021F7
:104C5000184602F04EF87B681B78022B0AD0032B13
:104C60000FD0012B16D14620FFF774F94420FFF72F
:104C700071F910E01120FFF76DF91020FFF76AF9C4
:104C800009E00E20FFF766F90C20FFF763F902E058
:104C900000BF00E000BF4837BD4680BD30000020A7
:104CA0003C00002080B586B000AFF860B9607A6043
:104CB000FB681B78002B19D0FB681B78032B15D8D9
:104CC000FB681B78013B0B4A52F823307B610021C3
:104CD000786900F07CFEBA687B69DA607A687B6983
:104CE0005A600121786900F072FE00E000BF1837B9
:104CF000BD4680BD3000002080B586B000AFF860B2
:104D0000B9607A60FB681B78002B25D0FB681B78A4
:104D1000032B21D8FB681B78013B114A52F8233042
:104D20007B610021786900F052FE786900F078FE1E
:104D30000346012B0CBF01230023DBB2002B00D064
:104D4000F3E7BA687B69DA607A687B695A600121A7
:104D5000786900F03CFE00E000BF1837BD4680BD1A
:104D60003C00002080B586B000AF78607B681B787F
:104D7000002B35D07B681B78032B31D87B681B78E0
:104D8000013B194A52F823307B61786900F03BFE01
:104D900003463B617B685A6A3B69D31AFB607B68B8
:104DA00003F5A073F968184600F04FFB7B6803F524
:104DB000A073184600F02AFC0346002B0CD07B6839
:104DC000002283F821207B685B69012240F2266182
:104DD000184601F0B2FF04E0786800F03FF800E008
:104DE00000BF1837BD4680BD3000002090B585B0AB
:104DF00000AF78607B681B78002B29D07B681B781C
:104E0000032B25D87B681B78013B134A52F82330CB
:104E1000FB607B68DC6AF86800F0F5FD0346E31A86
:104E2000BB607B683433B968184600F063FBBB682D
:104E3000002B09DD7B68DB681A467B68DB681B6832
:104E400030331B6810469847786800F029F800E076
:104E500000BF1437BD4690BD3C00002080B584B033
:104E600000AF78607B6803F5A07307F10802114674
:104E7000184600F0BBFAF860FB68002B0CD0BA684B
:104E80007B685A627B68012283F82120BB681A463E
:104E9000F9687868FFF706FF00BF1037BD4680BD90
:104EA00080B584B000AF78607B68343307F10802C6
:104EB0001146184600F0DEFAF860FB68002B15D0AA
:104EC0007B681A6BBB689A4202DA7B681B6BBB601B
:104ED000BA687B68DA627B68012283F82820BB68A5
:104EE0001A46F9687868FFF707FF08E07B68002238
:104EF00083F828207B681B695A1C7B681A6100BFF5
:104F00001037BD4680BD000080B500AF0A4B1B784E
:104F100083F00103DBB2002B0CD0074B01221A7087
:104F200001214FF4001001F061F801214FF48000DD
:104F300001F05CF800BF80BD58B3002080B584B09C
:104F400000AF78607B685B690821184601F03DFF7F
:104F50000346002B22D17B6893F82030002B1FD012
:104F60007B685B694FF4B071184601F04AFF034655
:104F7000002B13D17B685B694FF41871184601F060
:104F800040FF0346002B09D17B685B694FF45871E1
:104F9000184601F036FF0346002B01D0012300E044
:104FA0000023002B0AD07B685B69184601F091FE54
:104FB0007B681B695A1C7B681A6187E07B685B69A8
:104FC00040F22551184601F01CFF0346002B14BF88
:104FD00001230023DBB2002B25D07B685B691846D8
:104FE00001F077FE0346DBB2FB737B68343307F1D5
:104FF0000F021146184600F0BEFA034683F0010383
:10500000DBB2002B04D07B681B695A1C7B681A61D9
:105010007B68DB681A467B68DB681B6830331B687B
:105020001046984752E07B685B6940F2277118464A
:1050300001F0E7FE0346002B14BF01230023DBB27F
:10504000002B22D07B6803F5A07307F10F021146F5
:10505000184600F064FA0346002B05D0FA7B7B6803
:105060005B6992B29A8031E07B685B69002240F212
:105070002771184601F061FE7B685B69012240F2EE
:105080002661184601F059FE20E07B685B6940F21A
:105090002661184601F0B5FE0346002B14BF01231C
:1050A0000023DBB2002B11D07B685B69002240F249
:1050B0002661184601F041FE7B68DB681A467B6872
:1050C000DB681B6828331B681046984700BF103701
:1050D000BD4680BD80B483B000AF78607B681B782C
:1050E000013B072B28D801A252F823F00D510008EC
:1050F00011510008175100081D51000823510008E4
:10510000295100082D51000833510008102314E0E4
:105110004FF4003311E04FF480230EE04FF40023EE
:105120000BE04FF4801308E0202306E04FF08043AB
:1051300003E04FF0004300E0002318460C37BD4663
:105140005DF8047B704700BF80B483B000AF786027
:105150007B681B78013B072B22D801A252F823F071
:105160008151000885510008895100088D510008BF
:105170009151000895510008995100089D5100086F
:1051800007230EE007230CE007230AE0082308E0CA
:10519000082306E0082304E0082302E0082300E0D7
:1051A000002318460C37BD465DF8047B704700BFEE
:1051B00080B483B000AF78607B681B78013B052B1F
:1051C0001AD801A252F823F0E1510008E551000875
:1051D000E9510008ED510008F1510008F5510008AF
:1051E00025230AE0262308E0272306E0342304E0F1
:1051F000352302E0472300E0252318460C37BD463F
:105200005DF8047B704700BF80B483B000AF786066
:105210007B681B78013B072B22D801A252F823F0B0
:105220004152000845520008495200084D520008FA
:105230005152000855520008595200085D520008AA
:105240000B4B0EE00B4B0CE00B4B0AE00B4B08E05A
:105250000B4B06E00B4B04E00B4B02E00B4B00E06A
:10526000002318460C37BD465DF8047B704700BF2D
:10527000001001400044004000480040004C004045
:10528000005000400014014000780040007C0040C5
:1052900090B587B000AF786039607B681B78002BD1
:1052A00003D07B681B78062B02D94FF0FF3363E0F5
:1052B0003A687B689A607B685B69184601F086FBF8
:1052C0007B681B78012B03D07B681B78062B08D1E9
:1052D0007868FFF7FFFE03460121184600F0C6FE7E
:1052E00007E07868FFF7F6FE03460121184600F054
:1052F0009DFE7B68B3F91A407868FFF725FF0346E7
:105300001946204601F03AFF7B68B3F918407868E7
:10531000FFF71AFF03461946204601F02FFF07F159
:105320000803184601F098FC3B68BB607B685B692A
:1053300007F108021146184601F0D4FB7B685B694F
:105340000121184601F0A5FC7B685B69012240F24F
:105350002551184601F0F1FC7B685B69012240F29F
:105360002771184601F0E9FC7868FFF721FF034632
:105370001846FEF7EFFD002318461C37BD4690BDCA
:1053800080B582B000AF7860054A7B681A607B68A0
:105390001846FEF7ADFD7B6818460837BD4680BD50
:1053A000687B000880B582B000AF78607868FFF74E
:1053B000E7FF4FF486717868FBF7A6FF7B68184615
:1053C0000837BD4680BD000080B582B000AF786070
:1053D0007B68184600F040F9034A7B681A607B68D6
:1053E00018460837BD4680BD547B000880B485B0A0
:1053F00000AF786039607B68D3F80831FB607B6868
:10540000D3F80431BB60FA68BB689A4204D13B68A8
:1054100000221A60002312E0FA68BB689A4205DA9B
:10542000BA68FB68D21A3B681A6004E0FB68C3F5EF
:1054300080723B681A607A68FB681344043318462C
:105440001437BD465DF8047B704780B582B000AF6D
:10545000786039607B68D3F808313A681946786813
:1054600000F014F902467B68C3F8082100BF083732
:10547000BD4680BD80B584B000AF786039607B6880
:10548000D3F80831FB607B68D3F80431BB607B68DC
:10549000B968184600F013F90246FB6893420CBF46
:1054A00001230023DBB2002B04D03B6800221A60EA
:1054B00000231BE0FA68BB689A4206DDFA68BB6805
:1054C000D31A5A1E3B681A600CE0BB68C3F58072A1
:1054D0003B681A60FB68002B04D13B681B685A1EAE
:1054E0003B681A607A68BB68134404331846103767
:1054F000BD4680BD80B582B000AF786039607B6802
:10550000D3F804313A681946786800F0BFF80246CB
:105510007B68C3F8042100BF0837BD4680BD80B555
:1055200082B000AF786039607B68D3F808217B686F
:10553000D3F804319A420CBF01230023DBB2002BC5
:1055400001D0002313E07B68D3F808317A68134454
:105550001A793B681A707B68D3F808311946786865
:1055600000F0ADF802467B68C3F808210123184615
:105570000837BD4680BD80B584B000AF7860396023
:105580007B68D3F804311946786800F098F8F86021
:105590007B68D3F80831FA689A420CBF01230023D4
:1055A000DBB2002B01D000230DE07B68D3F804317F
:1055B0003A6811787A6813440A461A717B68FA6867
:1055C000C3F80421012318461037BD4680BD80B4BE
:1055D00085B000AF78607B68D3F80831FB607B68EA
:1055E000D3F80431BB60FA68BB689A4203DCBA683E
:1055F000FB68D31A04E0FB68C3F58072BB681344F0
:1056000018461437BD465DF8047B704780B483B0FC
:1056100000AF78607B68D3F808217B68D3F8043149
:105620009A420CBF01230023DBB218460C37BD465B
:105630005DF8047B7047000080B483B000AF7860F1
:10564000044A7B681A607B6818460C37BD465DF8D3
:10565000047B7047EC7B000880B582B000AF7860B7
:105660007B681846FFF7E8FF074A7B681A607B688B
:105670000022C3F808217B680022C3F804217B685C
:1056800018460837BD4680BD687B000880B487B0E7
:1056900000AFF860B9607A60BA687B6813447B61D8
:1056A0007B69FF2B04DD7B69A3F580737B61F7E7E2
:1056B0007B6918461C37BD465DF8047B704780B493
:1056C00083B000AF786039603B68FE2B02DC3B683A
:1056D000013300E0002318460C37BD465DF8047B1B
:1056E0007047000080B582B000AF7860054A7B68E3
:1056F0001A607B681846FFF743FE7B681846083738
:10570000BD4680BD547B000880B582B000AF786094
:105710007868FFF7E7FF4FF486717868FBF7F4FDD0
:105720007B6818460837BD4680BD000080B582B052
:1057300000AF7860054A7B681A607B681846FDF701
:105740007DFB7B6818460837BD4680BD7C7B000822
:1057500080B582B000AF78607868FFF7E7FF50212E
:105760007868FBF7D1FD7B6818460837BD4680BDD9
:1057700080B582B000AF78607B6803F5A0731846EF
:10578000FFF7B0FF7B6834331846FFF7ABFF7B6849
:1057900018460837BD4680BD90B583B000AF78602D
:1057A000064C074B9C4205D0A4F513742046FFF726
:1057B000DFFFF6E70C37BD4690BD00BF00B3002009
:1057C000ECA20020B0B582B000AF786039607B6891
:1057D000012B1DD13B684FF6FF72934218D10E4B3F
:1057E00006241D46002C06DB2846FEF71DFC05F5A9
:1057F0001375013CF6E7094A0949002001F0F6FD5E
:105800000848FEF7F9FB054A0749064801F0EEFD96
:1058100000BF0837BD46B0BDECA20020FC0100204F
:105820009957000808B300202D57000880B584B0B0
:1058300000AFF860B9607A603B607B68012B04D9E7
:105840000648FBF7ABFC002304E03968F868FFF773
:1058500092FE034618461037BD4680BD147A0008F4
:1058600080B500AF4FF6FF710120FFF7ABFF80BDA1
:1058700080B483B000AF78600B46FB70FB78002BE0
:1058800006D00A4B5A6809497B6813434B6006E00F
:10589000064B5A687B68DB43044913404B6000BFEA
:1058A0000C37BD465DF8047B704700BF002004E064
:1058B00080B485B000AF786039600023FB607B68FE
:1058C0001B68FB60FA68254B1340FB603B681A6855
:1058D0003B68DB681A433B685B691A433B689B691A
:1058E0001A433B68DB691A433B681B6A1A433B68EF
:1058F0005B6A1A433B689B6A1A433B685B6B1A43BB
:105900003B689B6B1343FA681343FB607B68FA6840
:105910001A607B685B69FB60FB6823F00703FB6030
:105920003B68DA6A3B681B6B1343FA681343FB60FE
:105930007B68FA685A613B681A697B685A603B6801
:105940005A687B689A603B689A687B68DA6000BF37
:105950001437BD465DF8047B704700BF3F801CF0E4
:1059600080B483B000AF78607B6800221A607B68E7
:1059700000225A607B6800229A607B680022DA600D
:105980007B6800221A617B6800225A617B680022D2
:105990009A617B680022DA617B6800221A627B6868
:1059A00000225A627B6800229A627B680022DA62D7
:1059B0007B6800221A637B6800225A637B6800229E
:1059C0009A6300BF0C37BD465DF8047B704780B416
:1059D00083B000AF78600B46FB70FB78002B06D0DD
:1059E0007B681B6843F001027B681A6005E07B68F6
:1059F0001B6823F001027B681A6000BF0C37BD46AC
:105A00005DF8047B704780B483B000AF78607B683A
:105A10005B689BB218460C37BD465DF8047B704747
:105A200080B485B000AF78600023FB737B681B688F
:105A300003F00103002B02D00123FB7301E00023DC
:105A4000FB73FB7B18461437BD465DF8047B70473B
:105A500080B485B000AFF860B9601346FB71BB68D5
:105A600003F08003002B0FD0FB79002B06D0FB68DE
:105A70005B6943F08002FB685A6105E0FB685B6983
:105A800023F08002FB685A61BB68802B14D0FB793D
:105A9000002B08D0FB681A68BB6803F01E031A438A
:105AA000FB681A6008E0FB681A68BB6803F01E0315
:105AB000DB431A40FB681A6000BF1437BD465DF82F
:105AC000047B704780B487B000AF786039600023F2
:105AD000FB750023FB600023BB607B68224A934276
